:100000000C9435000C945D000C945D000C945D0024
:100010000C945D000C945D000C945D000C945D00EC
:100020000C945D000C945D000C945D000C945D00DC
:100030000C945D000C945D000C945D000C945D00CC
:100040000C944F020C945D000C941D020C94F7016B
:100050000C945D000C945D000C945D000C945D00AC
:100060000C945D000C945D00140411241FBECFEFAE
:10007000D8E0DEBFCDBF11E0A0E0B1E0EAE6FCE0F1
:1000800002C005900D92AC32B107D9F721E0ACE285
:10009000B1E001C01D92A63DB207E1F710E0C5E353
:1000A000D0E004C02197FE010E942D06C433D10781
:1000B000C9F70E9499020C9433060C940000AF9289
:1000C000BF92CF92DF92EF92FF920F931F93CF9345
:1000D000DF936C017B018B01040F151FEB015E01A7
:1000E000AE18BF08C017D10759F06991D601ED913C
:1000F000FC910190F081E02DC6010995892B79F7DB
:10010000C501DF91CF911F910F91FF90EF90DF908C
:10011000CF90BF90AF900895FC01538D448D252F53
:1001200030E0842F90E0821B930B541710F0CF9691
:10013000089501970895FC01918D828D981761F0C3
:10014000A28DAE0FBF2FB11D5D968C91928D9F5FDA
:100150009F73928F90E008958FEF9FEF0895FC01B9
:10016000918D828D981731F0828DE80FF11D858D6C
:1001700090E008958FEF9FEF0895FC01918D228DFF
:10018000892F90E0805C9F4F821B91098F73992784
:10019000089589E391E00E94BD0021E0892B09F4D4
:1001A00020E0822F089580E090E0892B29F00E94C2
:1001B000C90081110C9400000895FC01A48DA80FC2
:1001C000B92FB11DA35ABF4F2C91848D90E0019699
:1001D0008F739927848FA689B7892C93A089B189B9
:1001E0008C91837080648C93938D848D981306C05A
:1001F0000288F389E02D80818F7D80830895EF92BE
:10020000FF920F931F93CF93DF93EC0181E0888FD0
:100210009B8D8C8D98131AC0E889F989808185FFA0
:1002200015C09FB7F894EE89FF896083E889F98942
:1002300080818370806480839FBF81E090E0DF9144
:10024000CF911F910F91FF90EF900895F62E0B8D97
:1002500010E00F5F1F4F0F731127E02E8C8D8E1152
:100260000CC00FB607FCFACFE889F989808185FFB9
:10027000F5CFCE010E94DD00F1CFEB8DEC0FFD2F0D
:10028000F11DE35AFF4FF0829FB7F8940B8FEA8974
:10029000FB8980818062CFCFCF93DF93EC01888D83
:1002A0008823B9F0AA89BB89E889F9898C9185FDF1
:1002B00003C0808186FD0DC00FB607FCF7CF8C917F
:1002C00085FFF2CF808185FFEDCFCE010E94DD005A
:1002D000E9CFDF91CF9108958E3008F08E5087706E
:1002E000806480937C0080917A00806480937A009F
:1002F00080917A0086FDFCCF809178009091790002
:1003000008953FB7F8948091310190913201A09106
:100310003301B091340126B5A89B05C02F3F19F0D9
:100320000196A11DB11D3FBFBA2FA92F982F882775
:10033000BC01CD01620F711D811D911D42E0660F50
:10034000771F881F991F4A95D1F70895FC010190E6
:100350000020E9F73197AF01481B590BBC0189E335
:1003600091E00C945F008F929F92AF92BF920F9397
:100370001F93CF93DF93CDB7DEB7A1970FB6F89455
:10038000DEBF0FBECDBF19A2423008F44AE08E0195
:100390000F5D1F4F842E912CB12CA12CA50194012F
:1003A0000E940B06E62FB901CA01EA30F4F4E05DC1
:1003B000D801EE938D01232B242B252B79F790E088
:1003C00080E0109719F0CD010E94A601A1960FB60A
:1003D000F894DEBF0FBECDBFDF91CF911F910F917B
:1003E000BF90AF909F908F900895E95CE1CF1F92EE
:1003F0000F920FB60F9211242F933F934F935F9359
:100400006F937F938F939F93AF93BF93EF93FF93DC
:1004100089E391E00E94DD00FF91EF91BF91AF91E0
:100420009F918F917F916F915F914F913F912F910C
:100430000F900FBE0F901F9018951F920F920FB63E
:100440000F9211242F938F939F93EF93FF93E0913B
:100450004901F0914A018081E0914F01F0915001F2
:1004600082FD1BC09081809152018F5F8F7320911C
:100470005301821741F0E0915201F0E0E75CFE4F3A
:10048000958F80935201FF91EF919F918F912F91C2
:100490000F900FBE0F901F9018958081F4CF1F9280
:1004A0000F920FB60F9211242F933F938F939F9328
:1004B000AF93BF9380912D0190912E01A0912F01B8
:1004C000B091300130912C0123E0230F2D3758F5E6
:1004D0000196A11DB11D20932C0180932D019093B5
:1004E0002E01A0932F01B0933001809131019091A2
:1004F0003201A0913301B09134010196A11DB11DCB
:100500008093310190933201A0933301B093340171
:10051000BF91AF919F918F913F912F910F900FBEFF
:100520000F901F90189526E8230F0296A11DB11D6C
:10053000D2CF789484B5826084BD84B5816084BD57
:1005400085B5826085BD85B5816085BD80916E0071
:10055000816080936E0010928100809181008260A2
:1005600080938100809181008160809381008091DF
:1005700080008160809380008091B10084608093CE
:10058000B1008091B00081608093B00080917A00CA
:10059000846080937A0080917A00826080937A00F0
:1005A00080917A00816080937A0080917A008068DF
:1005B00080937A001092C100E0914901F0914A01C4
:1005C00082E08083E0914501F09146011082E09144
:1005D0004701F09148018FEC808310925101E09126
:1005E0004D01F0914E0186E08083E0914B01F09146
:1005F0004C01808180618083E0914B01F0914C013E
:10060000808188608083E0914B01F0914C01808172
:1006100080688083E0914B01F0914C0180818F7D57
:100620008083C0E0D0E08EE00E946C017C018FE00E
:100630000E946C01B701681B790B072E000C880B18
:10064000990B0E94E40420E030E04AEF53E40E945A
:10065000990520E030E040E85AE30E949905609354
:10066000350170933601809337019093380182E110
:1006700091E00E94A601C0903501D0903601E09033
:100680003701F0903801A7019601C701B6010E9419
:1006900006068823B9F18CE191E00E94A60188E268
:1006A00091E00E94A6010E9481014B015C0184E659
:1006B000C82ED12CE12CF12C0E94810168197909F6
:1006C0008A099B09683E734081059105A8F321E0E2
:1006D000C21AD108E108F10888EE880E83E0981E5E
:1006E000A11CB11CC114D104E104F10429F7209725
:1006F00009F499CF0E94C900882309F494CF0E947D
:10070000000091CF46015701E894B7F82FEF3FEF73
:100710004FE75FE7C501B4010E94060681110DC0D5
:100720002FEF3FEF4FE75FE7C501B4010E94AE0432
:1007300018161CF480E291E0B0CF2FEF3FEF4FE7A7
:100740005FE4C701B6010E94940518161CF484E208
:1007500091E0A3CF2FEF3FEF4FE75FECC701B6016A
:100760000E94AE0487FDF3CF20E030E0A901C7016D
:10077000B6010E94AE0487FF09C06DE289E391E0F3
:100780000E94FF00F7FAF094F7F8F0942AE037EDB2
:1007900043EA5BE3C701B6010E9442044B015C01DE
:1007A0000E94B3046B017C010E94E2049B01AC0136
:1007B000C501B4010E9441044B015C014AE0C7013C
:1007C000B6010E94B3016EE289E391E00E94FF004E
:1007D00020E030E040E251E4C501B4010E949905F7
:1007E0004B015C010E94B3046B01F12CE12C4AE047
:1007F000C701B6010E94B301C701B6010E94E2041D
:100800009B01AC01C501B4010E94410420E030E02D
:1008100040E251E40E9499050E94B30490E080E018
:100820004AE00E94B3013BCFE9E3F1E01382128278
:1008300088EE93E0A0E0B0E084839583A683B7833D
:1008400084E091E09183808385EC90E095878487B4
:1008500084EC90E09787868780EC90E0918B808B8A
:1008600081EC90E0938B828B82EC90E0958B848B73
:1008700086EC90E0978B868B118E128E138E148EE1
:1008800008955058BB27AA270E9459040C945A0572
:100890000E944C0538F00E94530520F039F49F3F28
:1008A00019F426F40C9449050EF4E095E7FB0C943A
:1008B0004305E92F0E946B0558F3BA1762077307C7
:1008C0008407950720F079F4A6F50C948D050EF4B5
:1008D000E0950B2EBA2FA02D0B01B90190010C0150
:1008E000CA01A0011124FF27591B99F0593F50F468
:1008F000503E68F11A16F040A22F232F342F4427C0
:10090000585FF3CF469537952795A795F0405395B7
:10091000C9F77EF41F16BA0B620B730B840BBAF087
:100920009150A1F0FF0FBB1F661F771F881FC2F7F2
:100930000EC0BA0F621F731F841F48F48795779506
:100940006795B795F7959E3F08F0B0CF9395880FC0
:1009500008F09927EE0F9795879508950E941F0537
:1009600008F481E008950E94730588F09F5798F07D
:10097000B92F9927B751B0F0E1F0660F771F881FA4
:10098000991F1AF0BA95C9F714C0B13091F00E94BE
:100990008D05B1E008950C948D05672F782F882779
:1009A000B85F39F0B93FCCF3869577956795B395E5
:1009B000D9F73EF490958095709561957F4F8F4F54
:1009C0009F4F0895E89409C097FB3EF49095809559
:1009D000709561957F4F8F4F9F4F9923A9F0F92F05
:1009E00096E9BB279395F695879577956795B79583
:1009F000F111F8CFFAF4BB0F11F460FF1BC06F5F69
:100A00007F4F8F4F9F4F16C0882311F096E911C07A
:100A1000772321F09EE8872F762F05C0662371F09B
:100A200096E8862F70E060E02AF09A95660F771FAF
:100A3000881FDAF7880F9695879597F90895990F8B
:100A40000008550FAA0BE0E8FEEF16161706E80798
:100A5000F907C0F012161306E407F50798F0621BB9
:100A6000730B840B950B39F40A2661F0232B242B8E
:100A7000252B21F408950A2609F4A140A6958FEFAD
:100A8000811D811D089597F99F6780E870E060E0FF
:100A900008959FEF80EC089500240A941616170617
:100AA00018060906089500240A941216130614065F
:100AB00005060895092E0394000C11F4882352F0C2
:100AC000BB0F40F4BF2B11F460FF04C06F5F7F4F7A
:100AD0008F4F9F4F089557FD9058440F551F59F061
:100AE0005F3F71F04795880F97FB991F61F09F3F1B
:100AF00079F087950895121613061406551FF2CF44
:100B00004695F1DF08C0161617061806991FF1CF93
:100B100086957105610508940895E894BB276627BA
:100B20007727CB0197F908950E941F0508F48FEFEE
:100B300008950E94AC050C945A050E944C0538F0AB
:100B40000E94530520F0952311F00C9443050C945A
:100B5000490511240C948E050E946B0570F3959F36
:100B6000C1F3950F50E0551F629FF001729FBB27A4
:100B7000F00DB11D639FAA27F00DB11DAA1F649F40
:100B80006627B00DA11D661F829F2227B00DA11DF3
:100B9000621F739FB00DA11D621F839FA00D611D79
:100BA000221F749F3327A00D611D231F849F600D9A
:100BB000211D822F762F6A2F11249F5750409AF0C3
:100BC000F1F088234AF0EE0FFF1FBB1F661F771F4F
:100BD000881F91505040A9F79E3F510580F00C941A
:100BE00043050C948E055F3FE4F3983ED4F386955D
:100BF00077956795B795F795E7959F5FC1F7FE2BBA
:100C0000880F911D9695879597F908950E941F0565
:100C1000880B990B0895A1E21A2EAA1BBB1BFD019C
:100C20000DC0AA1FBB1FEE1FFF1FA217B307E407CB
:100C3000F50720F0A21BB30BE40BF50B661F771F23
:100C4000881F991F1A9469F7609570958095909503
:100C50009B01AC01BD01CF010895EE0FFF1F059070
:0A0C6000F491E02D0994F894FFCF01
:100C6A0000000000FF005F008C004C01BD009B00EB
:100C7A00AF0073656E736F72203D20006E616E0067
:0C0C8A00696E66006F7666000D0A0000BF
:00000001FF
